{
  "contractName": "Marketplace",
  "abi": [
    {
      "constant": true,
      "inputs": [],
      "name": "name",
      "outputs": [
        {
          "name": "",
          "type": "string"
        }
      ],
      "payable": false,
      "stateMutability": "view",
      "type": "function"
    },
    {
      "constant": true,
      "inputs": [],
      "name": "drugCount",
      "outputs": [
        {
          "name": "",
          "type": "uint256"
        }
      ],
      "payable": false,
      "stateMutability": "view",
      "type": "function"
    },
    {
      "constant": true,
      "inputs": [
        {
          "name": "",
          "type": "uint256"
        }
      ],
      "name": "products",
      "outputs": [
        {
          "name": "id",
          "type": "uint256"
        },
        {
          "name": "name",
          "type": "string"
        },
        {
          "name": "price",
          "type": "uint256"
        },
        {
          "name": "owner",
          "type": "address"
        },
        {
          "name": "purchased",
          "type": "bool"
        }
      ],
      "payable": false,
      "stateMutability": "view",
      "type": "function"
    },
    {
      "constant": true,
      "inputs": [],
      "name": "productCount",
      "outputs": [
        {
          "name": "",
          "type": "uint256"
        }
      ],
      "payable": false,
      "stateMutability": "view",
      "type": "function"
    },
    {
      "constant": true,
      "inputs": [
        {
          "name": "",
          "type": "uint256"
        }
      ],
      "name": "drugs",
      "outputs": [
        {
          "name": "id",
          "type": "uint256"
        },
        {
          "name": "role",
          "type": "string"
        },
        {
          "name": "drugName",
          "type": "string"
        },
        {
          "name": "price",
          "type": "uint256"
        },
        {
          "name": "remark",
          "type": "string"
        },
        {
          "name": "owner",
          "type": "address"
        }
      ],
      "payable": false,
      "stateMutability": "view",
      "type": "function"
    },
    {
      "inputs": [],
      "payable": false,
      "stateMutability": "nonpayable",
      "type": "constructor"
    },
    {
      "anonymous": false,
      "inputs": [
        {
          "indexed": false,
          "name": "id",
          "type": "uint256"
        },
        {
          "indexed": false,
          "name": "role",
          "type": "string"
        },
        {
          "indexed": false,
          "name": "drugName",
          "type": "string"
        },
        {
          "indexed": false,
          "name": "price",
          "type": "uint256"
        },
        {
          "indexed": false,
          "name": "remark",
          "type": "string"
        },
        {
          "indexed": false,
          "name": "owner",
          "type": "address"
        }
      ],
      "name": "DrugCreated",
      "type": "event"
    },
    {
      "anonymous": false,
      "inputs": [
        {
          "indexed": false,
          "name": "id",
          "type": "uint256"
        },
        {
          "indexed": false,
          "name": "role",
          "type": "string"
        },
        {
          "indexed": false,
          "name": "drugName",
          "type": "string"
        },
        {
          "indexed": false,
          "name": "price",
          "type": "uint256"
        },
        {
          "indexed": false,
          "name": "remark",
          "type": "string"
        },
        {
          "indexed": false,
          "name": "owner",
          "type": "address"
        }
      ],
      "name": "DrugDataPosted",
      "type": "event"
    },
    {
      "anonymous": false,
      "inputs": [
        {
          "indexed": false,
          "name": "id",
          "type": "uint256"
        },
        {
          "indexed": false,
          "name": "name",
          "type": "string"
        },
        {
          "indexed": false,
          "name": "price",
          "type": "uint256"
        },
        {
          "indexed": false,
          "name": "owner",
          "type": "address"
        },
        {
          "indexed": false,
          "name": "purchased",
          "type": "bool"
        }
      ],
      "name": "ProductCreated",
      "type": "event"
    },
    {
      "anonymous": false,
      "inputs": [
        {
          "indexed": false,
          "name": "id",
          "type": "uint256"
        },
        {
          "indexed": false,
          "name": "name",
          "type": "string"
        },
        {
          "indexed": false,
          "name": "price",
          "type": "uint256"
        },
        {
          "indexed": false,
          "name": "owner",
          "type": "address"
        },
        {
          "indexed": false,
          "name": "purchased",
          "type": "bool"
        }
      ],
      "name": "ProductPurchased",
      "type": "event"
    },
    {
      "constant": false,
      "inputs": [
        {
          "name": "_role",
          "type": "string"
        },
        {
          "name": "_name",
          "type": "string"
        },
        {
          "name": "_price",
          "type": "uint256"
        },
        {
          "name": "_remark",
          "type": "string"
        }
      ],
      "name": "createDrug",
      "outputs": [],
      "payable": false,
      "stateMutability": "nonpayable",
      "type": "function"
    },
    {
      "constant": false,
      "inputs": [
        {
          "name": "_id",
          "type": "uint256"
        }
      ],
      "name": "postDrugData",
      "outputs": [],
      "payable": false,
      "stateMutability": "nonpayable",
      "type": "function"
    },
    {
      "constant": false,
      "inputs": [
        {
          "name": "_name",
          "type": "string"
        },
        {
          "name": "_price",
          "type": "uint256"
        }
      ],
      "name": "createProduct",
      "outputs": [],
      "payable": false,
      "stateMutability": "nonpayable",
      "type": "function"
    },
    {
      "constant": false,
      "inputs": [
        {
          "name": "_id",
          "type": "uint256"
        }
      ],
      "name": "purchaseProduct",
      "outputs": [],
      "payable": true,
      "stateMutability": "payable",
      "type": "function"
    }
  ],
  "bytecode": "0x6080604052600060015560006002553480156200001b57600080fd5b506040518060400160405280600581526020017f6b616e6164000000000000000000000000000000000000000000000000000000815250600090805190602001906200006992919062000070565b506200011f565b828054600181600116156101000203166002900490600052602060002090601f016020900481019282601f10620000b357805160ff1916838001178555620000e4565b82800160010185558215620000e4579182015b82811115620000e3578251825591602001919060010190620000c6565b5b509050620000f39190620000f7565b5090565b6200011c91905b8082111562000118576000816000905550600101620000fe565b5090565b90565b611b6a806200012f6000396000f3fe6080604052600436106100865760003560e01c806388d965641161005957806388d9656414610274578063e0f6ef8714610474578063e9300c6c1461049f578063eba984f114610571578063fca5e61e146105ac57610086565b806306fdde031461008b57806338e76a031461011b5780637577ca37146101495780637acc0b2014610174575b600080fd5b34801561009757600080fd5b506100a0610779565b6040518080602001828103825283818151815260200191508051906020019080838360005b838110156100e05780820151818401526020810190506100c5565b50505050905090810190601f16801561010d5780820380516001836020036101000a031916815260200191505b509250505060405180910390f35b6101476004803603602081101561013157600080fd5b8101908080359060200190929190505050610817565b005b34801561015557600080fd5b5061015e610c26565b6040518082815260200191505060405180910390f35b34801561018057600080fd5b506101ad6004803603602081101561019757600080fd5b8101908080359060200190929190505050610c2c565b60405180868152602001806020018581526020018473ffffffffffffffffffffffffffffffffffffffff1673ffffffffffffffffffffffffffffffffffffffff16815260200183151515158152602001828103825286818151815260200191508051906020019080838360005b8381101561023557808201518184015260208101905061021a565b50505050905090810190601f1680156102625780820380516001836020036101000a031916815260200191505b50965050505050505060405180910390f35b34801561028057600080fd5b506104726004803603608081101561029757600080fd5b81019080803590602001906401000000008111156102b457600080fd5b8201836020820111156102c657600080fd5b803590602001918460018302840111640100000000831117156102e857600080fd5b91908080601f016020809104026020016040519081016040528093929190818152602001838380828437600081840152601f19601f8201169050808301925050505050505091929192908035906020019064010000000081111561034b57600080fd5b82018360208201111561035d57600080fd5b8035906020019184600183028401116401000000008311171561037f57600080fd5b91908080601f016020809104026020016040519081016040528093929190818152602001838380828437600081840152601f19601f82011690508083019250505050505050919291929080359060200190929190803590602001906401000000008111156103ec57600080fd5b8201836020820111156103fe57600080fd5b8035906020019184600183028401116401000000008311171561042057600080fd5b91908080601f016020809104026020016040519081016040528093929190818152602001838380828437600081840152601f19601f820116905080830192505050505050509192919290505050610d27565b005b34801561048057600080fd5b50610489611081565b6040518082815260200191505060405180910390f35b3480156104ab57600080fd5b5061056f600480360360408110156104c257600080fd5b81019080803590602001906401000000008111156104df57600080fd5b8201836020820111156104f157600080fd5b8035906020019184600183028401116401000000008311171561051357600080fd5b91908080601f016020809104026020016040519081016040528093929190818152602001838380828437600081840152601f19601f82011690508083019250505050505050919291929080359060200190929190505050611087565b005b34801561057d57600080fd5b506105aa6004803603602081101561059457600080fd5b8101908080359060200190929190505050611299565b005b3480156105b857600080fd5b506105e5600480360360208110156105cf57600080fd5b81019080803590602001909291905050506117e2565b604051808781526020018060200180602001868152602001806020018573ffffffffffffffffffffffffffffffffffffffff1673ffffffffffffffffffffffffffffffffffffffff168152602001848103845289818151815260200191508051906020019080838360005b8381101561066b578082015181840152602081019050610650565b50505050905090810190601f1680156106985780820380516001836020036101000a031916815260200191505b50848103835288818151815260200191508051906020019080838360005b838110156106d15780820151818401526020810190506106b6565b50505050905090810190601f1680156106fe5780820380516001836020036101000a031916815260200191505b50848103825286818151815260200191508051906020019080838360005b8381101561073757808201518184015260208101905061071c565b50505050905090810190601f1680156107645780820380516001836020036101000a031916815260200191505b50995050505050505050505060405180910390f35b60008054600181600116156101000203166002900480601f01602080910402602001604051908101604052809291908181526020018280546001816001161561010002031660029004801561080f5780601f106107e45761010080835404028352916020019161080f565b820191906000526020600020905b8154815290600101906020018083116107f257829003601f168201915b505050505081565b61081f611a06565b600360008381526020019081526020016000206040518060a001604052908160008201548152602001600182018054600181600116156101000203166002900480601f0160208091040260200160405190810160405280929190818152602001828054600181600116156101000203166002900480156108e05780601f106108b5576101008083540402835291602001916108e0565b820191906000526020600020905b8154815290600101906020018083116108c357829003601f168201915b50505050508152602001600282015481526020016003820160009054906101000a900473ffffffffffffffffffffffffffffffffffffffff1673ffffffffffffffffffffffffffffffffffffffff1673ffffffffffffffffffffffffffffffffffffffff1681526020016003820160149054906101000a900460ff1615151515815250509050600081606001519050600082600001511180156109895750600154826000015111155b61099257600080fd5b81604001513410156109a357600080fd5b8160800151156109b257600080fd5b3373ffffffffffffffffffffffffffffffffffffffff168173ffffffffffffffffffffffffffffffffffffffff1614156109eb57600080fd5b33826060019073ffffffffffffffffffffffffffffffffffffffff16908173ffffffffffffffffffffffffffffffffffffffff168152505060018260800190151590811515815250508160036000858152602001908152602001600020600082015181600001556020820151816001019080519060200190610a6e929190611a4d565b506040820151816002015560608201518160030160006101000a81548173ffffffffffffffffffffffffffffffffffffffff021916908373ffffffffffffffffffffffffffffffffffffffff16021790555060808201518160030160146101000a81548160ff0219169083151502179055509050508073ffffffffffffffffffffffffffffffffffffffff166108fc349081150290604051600060405180830381858888f19350505050158015610b29573d6000803e3d6000fd5b507f79558d0d7d4d900e2f15c4cc0a665f1acdbe415e44de900ecdd1e5bf12b56f4e6001548360200151846040015133600160405180868152602001806020018581526020018473ffffffffffffffffffffffffffffffffffffffff1673ffffffffffffffffffffffffffffffffffffffff16815260200183151515158152602001828103825286818151815260200191508051906020019080838360005b83811015610be3578082015181840152602081019050610bc8565b50505050905090810190601f168015610c105780820380516001836020036101000a031916815260200191505b50965050505050505060405180910390a1505050565b60025481565b6003602052806000526040600020600091509050806000015490806001018054600181600116156101000203166002900480601f016020809104026020016040519081016040528092919081815260200182805460018160011615610100020316600290048015610cde5780601f10610cb357610100808354040283529160200191610cde565b820191906000526020600020905b815481529060010190602001808311610cc157829003601f168201915b5050505050908060020154908060030160009054906101000a900473ffffffffffffffffffffffffffffffffffffffff16908060030160149054906101000a900460ff16905085565b6000835111610d9e576040517f08c379a00000000000000000000000000000000000000000000000000000000081526004018080602001828103825260158152602001807f44727567206d757374206861732061206e616d652e000000000000000000000081525060200191505060405180910390fd5b6002600081548092919060010191905055506040518060c0016040528060025481526020018581526020018481526020018381526020018281526020013373ffffffffffffffffffffffffffffffffffffffff16815250600460006002548152602001908152602001600020600082015181600001556020820151816001019080519060200190610e30929190611a4d565b506040820151816002019080519060200190610e4d929190611a4d565b50606082015181600301556080820151816004019080519060200190610e74929190611a4d565b5060a08201518160050160006101000a81548173ffffffffffffffffffffffffffffffffffffffff021916908373ffffffffffffffffffffffffffffffffffffffff1602179055509050507fc05ed37e970abcff87378497284b09afc15110df37cfc71a88ffca41f9f7cdaa6002548585858533604051808781526020018060200180602001868152602001806020018573ffffffffffffffffffffffffffffffffffffffff1673ffffffffffffffffffffffffffffffffffffffff168152602001848103845289818151815260200191508051906020019080838360005b83811015610f6e578082015181840152602081019050610f53565b50505050905090810190601f168015610f9b5780820380516001836020036101000a031916815260200191505b50848103835288818151815260200191508051906020019080838360005b83811015610fd4578082015181840152602081019050610fb9565b50505050905090810190601f1680156110015780820380516001836020036101000a031916815260200191505b50848103825286818151815260200191508051906020019080838360005b8381101561103a57808201518184015260208101905061101f565b50505050905090810190601f1680156110675780820380516001836020036101000a031916815260200191505b50995050505050505050505060405180910390a150505050565b60015481565b600082511161109557600080fd5b600081116110a257600080fd5b6001600081548092919060010191905055506040518060a0016040528060015481526020018381526020018281526020013373ffffffffffffffffffffffffffffffffffffffff16815260200160001515815250600360006001548152602001908152602001600020600082015181600001556020820151816001019080519060200190611131929190611a4d565b506040820151816002015560608201518160030160006101000a81548173ffffffffffffffffffffffffffffffffffffffff021916908373ffffffffffffffffffffffffffffffffffffffff16021790555060808201518160030160146101000a81548160ff0219169083151502179055509050507fbc59c0c8165864dcceb377dd07d8f431d4303f8e501cb0a0374a10cc68d71836600154838333600060405180868152602001806020018581526020018473ffffffffffffffffffffffffffffffffffffffff1673ffffffffffffffffffffffffffffffffffffffff16815260200183151515158152602001828103825286818151815260200191508051906020019080838360005b8381101561125757808201518184015260208101905061123c565b50505050905090810190601f1680156112845780820380516001836020036101000a031916815260200191505b50965050505050505060405180910390a15050565b6112a1611acd565b600460008381526020019081526020016000206040518060c001604052908160008201548152602001600182018054600181600116156101000203166002900480601f0160208091040260200160405190810160405280929190818152602001828054600181600116156101000203166002900480156113625780601f1061133757610100808354040283529160200191611362565b820191906000526020600020905b81548152906001019060200180831161134557829003601f168201915b50505050508152602001600282018054600181600116156101000203166002900480601f0160208091040260200160405190810160405280929190818152602001828054600181600116156101000203166002900480156114045780601f106113d957610100808354040283529160200191611404565b820191906000526020600020905b8154815290600101906020018083116113e757829003601f168201915b5050505050815260200160038201548152602001600482018054600181600116156101000203166002900480601f0160208091040260200160405190810160405280929190818152602001828054600181600116156101000203166002900480156114b05780601f10611485576101008083540402835291602001916114b0565b820191906000526020600020905b81548152906001019060200180831161149357829003601f168201915b505050505081526020016005820160009054906101000a900473ffffffffffffffffffffffffffffffffffffffff1673ffffffffffffffffffffffffffffffffffffffff1673ffffffffffffffffffffffffffffffffffffffff16815250509050338160a0019073ffffffffffffffffffffffffffffffffffffffff16908173ffffffffffffffffffffffffffffffffffffffff16815250508060046000848152602001908152602001600020600082015181600001556020820151816001019080519060200190611583929190611a4d565b5060408201518160020190805190602001906115a0929190611a4d565b506060820151816003015560808201518160040190805190602001906115c7929190611a4d565b5060a08201518160050160006101000a81548173ffffffffffffffffffffffffffffffffffffffff021916908373ffffffffffffffffffffffffffffffffffffffff1602179055509050507f997e6a9109fe3d0374cee34dba3901068a26ceb20abfe8d27c6e5db512b6e62f600254826020015183604001518460600151856080015133604051808781526020018060200180602001868152602001806020018573ffffffffffffffffffffffffffffffffffffffff1673ffffffffffffffffffffffffffffffffffffffff168152602001848103845289818151815260200191508051906020019080838360005b838110156116d15780820151818401526020810190506116b6565b50505050905090810190601f1680156116fe5780820380516001836020036101000a031916815260200191505b50848103835288818151815260200191508051906020019080838360005b8381101561173757808201518184015260208101905061171c565b50505050905090810190601f1680156117645780820380516001836020036101000a031916815260200191505b50848103825286818151815260200191508051906020019080838360005b8381101561179d578082015181840152602081019050611782565b50505050905090810190601f1680156117ca5780820380516001836020036101000a031916815260200191505b50995050505050505050505060405180910390a15050565b6004602052806000526040600020600091509050806000015490806001018054600181600116156101000203166002900480601f0160208091040260200160405190810160405280929190818152602001828054600181600116156101000203166002900480156118945780601f1061186957610100808354040283529160200191611894565b820191906000526020600020905b81548152906001019060200180831161187757829003601f168201915b505050505090806002018054600181600116156101000203166002900480601f0160208091040260200160405190810160405280929190818152602001828054600181600116156101000203166002900480156119325780601f1061190757610100808354040283529160200191611932565b820191906000526020600020905b81548152906001019060200180831161191557829003601f168201915b505050505090806003015490806004018054600181600116156101000203166002900480601f0160208091040260200160405190810160405280929190818152602001828054600181600116156101000203166002900480156119d65780601f106119ab576101008083540402835291602001916119d6565b820191906000526020600020905b8154815290600101906020018083116119b957829003601f168201915b5050505050908060050160009054906101000a900473ffffffffffffffffffffffffffffffffffffffff16905086565b6040518060a00160405280600081526020016060815260200160008152602001600073ffffffffffffffffffffffffffffffffffffffff1681526020016000151581525090565b828054600181600116156101000203166002900490600052602060002090601f016020900481019282601f10611a8e57805160ff1916838001178555611abc565b82800160010185558215611abc579182015b82811115611abb578251825591602001919060010190611aa0565b5b509050611ac99190611b19565b5090565b6040518060c001604052806000815260200160608152602001606081526020016000815260200160608152602001600073ffffffffffffffffffffffffffffffffffffffff1681525090565b611b3b91905b80821115611b37576000816000905550600101611b1f565b5090565b9056fea165627a7a72305820bb776b2b2b391ddb2002458dac965b130d983485d75a831863ad10ccdb23053e0029",
  "source": "pragma solidity >=0.4.21 <0.6.0;\n\ncontract Marketplace{\n\n    string public name;\n    uint public productCount = 0;\n    uint public drugCount = 0;\n    mapping(uint => Product) public products;\n    mapping(uint => Drug) public drugs;\n\n    struct Product{\n\n        uint id;\n        string name;\n        uint price;\n        address payable owner;\n        bool purchased;\n    }\n\n    struct Drug{\n\n        uint id;\n        string role;\n        string drugName;\n        uint price;\n        string remark;\n        address payable owner;\n    }\n\n    event DrugCreated(\n\n        uint id,\n        string role,\n        string drugName,\n        uint price,\n        string remark,\n        address payable owner\n    );\n\n     event DrugDataPosted(\n\n        uint id,\n        string role,\n        string drugName,\n        uint price,\n        string remark,\n        address payable owner\n    );\n\n        \n    event ProductCreated(\n        uint id,\n        string name,\n        uint price,\n        address payable owner,\n        bool purchased\n    );\n\n    event ProductPurchased(\n        uint id,\n        string name,\n        uint price,\n        address payable owner,\n        bool purchased\n\n    );\n\n    constructor() public{\n\n        name = \"kanad\";\n    }\n\n    function createDrug(string memory _role, string memory _name, uint _price, string memory _remark)public{\n\n        //name validation\n        require(bytes(_name).length > 0, \"Drug must has a name.\");\n\n        drugCount++;\n\n         //create the product\n         drugs[drugCount] = Drug(drugCount, _role, _name, _price, _remark, msg.sender);\n\n         //trigger an event to notify the product is created\n         emit DrugCreated(drugCount, _role, _name, _price, _remark, msg.sender);\n\n\n    }\n\n    function postDrugData(uint _id) public {\n\n        Drug memory _drug = drugs[_id];\n        _drug.owner = msg.sender;\n\n        drugs[_id] = _drug;\n\n        emit DrugDataPosted(drugCount, _drug.role, _drug.drugName, _drug.price, _drug.remark, msg.sender);\n\n\n    }\n\n\n\n    function createProduct(string memory _name, uint _price) public{\n        \n        //name validation\n        require(bytes(_name).length > 0);\n\n        //price validation\n        require(_price > 0);\n        //increament the product count\n        productCount++;\n\n        //create the product\n         products[productCount] = Product(productCount, _name,  _price, msg.sender, false);\n\n         //trigger an event to notify the product is created\n         emit ProductCreated(productCount, _name,  _price, msg.sender, false);\n\n    }\n\n    function purchaseProduct(uint _id) public payable{\n\n        Product memory _product = products[_id];\n\n        address payable _seller = _product.owner;\n\n        //make shure that valid product id\n        require(_product.id >0 && _product.id<=productCount);\n\n        //make that anount is enough to purchase prduct\n        require(msg.value>= _product.price);\n\n        //make shure thaat product has not been purchased already\n        require(!_product.purchased);\n\n        //make sure seller is not buyer\n        require(_seller != msg.sender); \n\n        _product.owner = msg.sender; //now the owner will be buyer who will call this fun. so msg.sender\n\n        _product.purchased = true;\n\n        //put back updated produt in mapping\n        products[_id] = _product;\n\n        //we need to pay paise or money to owner after purchasing\n        address(_seller).transfer(msg.value);\n\n        //trigger an event to notify the product is purchased\n        emit ProductPurchased(productCount, _product.name, _product.price, msg.sender, true);\n\n    }\n\n    \n    \n}",
  "sourcePath": "/home/rahul/Desktop/pharm/src/contracts/Marketplace.sol",
  "compiler": {
    "name": "solc",
    "version": "0.5.8+commit.23d335f2.Emscripten.clang"
  },
  "schemaVersion": "3.0.16",
  "updatedAt": "2020-03-17T04:05:16.077Z",
  "devdoc": {
    "methods": {}
  },
  "userdoc": {
    "methods": {}
  }
}