{
  "contractName": "Marketplace",
  "abi": [
    {
      "constant": true,
      "inputs": [],
      "name": "name",
      "outputs": [
        {
          "name": "",
          "type": "string"
        }
      ],
      "payable": false,
      "stateMutability": "view",
      "type": "function"
    },
    {
      "constant": true,
      "inputs": [],
      "name": "drugCount",
      "outputs": [
        {
          "name": "",
          "type": "uint256"
        }
      ],
      "payable": false,
      "stateMutability": "view",
      "type": "function"
    },
    {
      "constant": true,
      "inputs": [
        {
          "name": "",
          "type": "uint256"
        }
      ],
      "name": "products",
      "outputs": [
        {
          "name": "id",
          "type": "uint256"
        },
        {
          "name": "name",
          "type": "string"
        },
        {
          "name": "price",
          "type": "uint256"
        },
        {
          "name": "owner",
          "type": "address"
        },
        {
          "name": "purchased",
          "type": "bool"
        }
      ],
      "payable": false,
      "stateMutability": "view",
      "type": "function"
    },
    {
      "constant": true,
      "inputs": [],
      "name": "productCount",
      "outputs": [
        {
          "name": "",
          "type": "uint256"
        }
      ],
      "payable": false,
      "stateMutability": "view",
      "type": "function"
    },
    {
      "constant": true,
      "inputs": [
        {
          "name": "",
          "type": "uint256"
        }
      ],
      "name": "drugs",
      "outputs": [
        {
          "name": "id",
          "type": "uint256"
        },
        {
          "name": "role",
          "type": "string"
        },
        {
          "name": "drugName",
          "type": "string"
        },
        {
          "name": "price",
          "type": "uint256"
        },
        {
          "name": "remark",
          "type": "string"
        },
        {
          "name": "content",
          "type": "string"
        },
        {
          "name": "mnfDate",
          "type": "string"
        },
        {
          "name": "expDate",
          "type": "string"
        }
      ],
      "payable": false,
      "stateMutability": "view",
      "type": "function"
    },
    {
      "inputs": [],
      "payable": false,
      "stateMutability": "nonpayable",
      "type": "constructor"
    },
    {
      "anonymous": false,
      "inputs": [
        {
          "indexed": false,
          "name": "id",
          "type": "uint256"
        },
        {
          "indexed": false,
          "name": "role",
          "type": "string"
        },
        {
          "indexed": false,
          "name": "drugName",
          "type": "string"
        },
        {
          "indexed": false,
          "name": "price",
          "type": "uint256"
        },
        {
          "indexed": false,
          "name": "remark",
          "type": "string"
        },
        {
          "indexed": false,
          "name": "content",
          "type": "string"
        },
        {
          "indexed": false,
          "name": "mnfDate",
          "type": "string"
        },
        {
          "indexed": false,
          "name": "expDate",
          "type": "string"
        }
      ],
      "name": "DrugCreated",
      "type": "event"
    },
    {
      "anonymous": false,
      "inputs": [
        {
          "indexed": false,
          "name": "id",
          "type": "uint256"
        },
        {
          "indexed": false,
          "name": "role",
          "type": "string"
        },
        {
          "indexed": false,
          "name": "drugName",
          "type": "string"
        },
        {
          "indexed": false,
          "name": "price",
          "type": "uint256"
        },
        {
          "indexed": false,
          "name": "remark",
          "type": "string"
        },
        {
          "indexed": false,
          "name": "content",
          "type": "string"
        },
        {
          "indexed": false,
          "name": "mnfDate",
          "type": "string"
        },
        {
          "indexed": false,
          "name": "expDate",
          "type": "string"
        }
      ],
      "name": "DrugDataPosted",
      "type": "event"
    },
    {
      "anonymous": false,
      "inputs": [
        {
          "indexed": false,
          "name": "id",
          "type": "uint256"
        },
        {
          "indexed": false,
          "name": "name",
          "type": "string"
        },
        {
          "indexed": false,
          "name": "price",
          "type": "uint256"
        },
        {
          "indexed": false,
          "name": "owner",
          "type": "address"
        },
        {
          "indexed": false,
          "name": "purchased",
          "type": "bool"
        }
      ],
      "name": "ProductCreated",
      "type": "event"
    },
    {
      "anonymous": false,
      "inputs": [
        {
          "indexed": false,
          "name": "id",
          "type": "uint256"
        },
        {
          "indexed": false,
          "name": "name",
          "type": "string"
        },
        {
          "indexed": false,
          "name": "price",
          "type": "uint256"
        },
        {
          "indexed": false,
          "name": "owner",
          "type": "address"
        },
        {
          "indexed": false,
          "name": "purchased",
          "type": "bool"
        }
      ],
      "name": "ProductPurchased",
      "type": "event"
    },
    {
      "constant": false,
      "inputs": [
        {
          "name": "_role",
          "type": "string"
        },
        {
          "name": "_name",
          "type": "string"
        },
        {
          "name": "_price",
          "type": "uint256"
        },
        {
          "name": "_remark",
          "type": "string"
        },
        {
          "name": "_content",
          "type": "string"
        },
        {
          "name": "_mnfDate",
          "type": "string"
        },
        {
          "name": "_expDate",
          "type": "string"
        }
      ],
      "name": "createDrug",
      "outputs": [],
      "payable": false,
      "stateMutability": "nonpayable",
      "type": "function"
    },
    {
      "constant": false,
      "inputs": [
        {
          "name": "_id",
          "type": "uint256"
        }
      ],
      "name": "postDrugData",
      "outputs": [],
      "payable": false,
      "stateMutability": "nonpayable",
      "type": "function"
    },
    {
      "constant": false,
      "inputs": [
        {
          "name": "_name",
          "type": "string"
        },
        {
          "name": "_price",
          "type": "uint256"
        }
      ],
      "name": "createProduct",
      "outputs": [],
      "payable": false,
      "stateMutability": "nonpayable",
      "type": "function"
    },
    {
      "constant": false,
      "inputs": [
        {
          "name": "_id",
          "type": "uint256"
        }
      ],
      "name": "purchaseProduct",
      "outputs": [],
      "payable": true,
      "stateMutability": "payable",
      "type": "function"
    }
  ],
  "bytecode": "0x6080604052600060015560006002553480156200001b57600080fd5b506040518060400160405280600581526020017f6b616e6164000000000000000000000000000000000000000000000000000000815250600090805190602001906200006992919062000070565b506200011f565b828054600181600116156101000203166002900490600052602060002090601f016020900481019282601f10620000b357805160ff1916838001178555620000e4565b82800160010185558215620000e4579182015b82811115620000e3578251825591602001919060010190620000c6565b5b509050620000f39190620000f7565b5090565b6200011c91905b8082111562000118576000816000905550600101620000fe565b5090565b90565b612392806200012f6000396000f3fe6080604052600436106100865760003560e01c80637acc0b20116100595780637acc0b2014610539578063e0f6ef8714610639578063e9300c6c14610664578063eba984f114610736578063fca5e61e1461077157610086565b806306fdde031461008b57806338e76a031461011b57806346967c33146101495780637577ca371461050e575b600080fd5b34801561009757600080fd5b506100a0610a4f565b6040518080602001828103825283818151815260200191508051906020019080838360005b838110156100e05780820151818401526020810190506100c5565b50505050905090810190601f16801561010d5780820380516001836020036101000a031916815260200191505b509250505060405180910390f35b6101476004803603602081101561013157600080fd5b8101908080359060200190929190505050610aed565b005b34801561015557600080fd5b5061050c600480360360e081101561016c57600080fd5b810190808035906020019064010000000081111561018957600080fd5b82018360208201111561019b57600080fd5b803590602001918460018302840111640100000000831117156101bd57600080fd5b91908080601f016020809104026020016040519081016040528093929190818152602001838380828437600081840152601f19601f8201169050808301925050505050505091929192908035906020019064010000000081111561022057600080fd5b82018360208201111561023257600080fd5b8035906020019184600183028401116401000000008311171561025457600080fd5b91908080601f016020809104026020016040519081016040528093929190818152602001838380828437600081840152601f19601f82011690508083019250505050505050919291929080359060200190929190803590602001906401000000008111156102c157600080fd5b8201836020820111156102d357600080fd5b803590602001918460018302840111640100000000831117156102f557600080fd5b91908080601f016020809104026020016040519081016040528093929190818152602001838380828437600081840152601f19601f8201169050808301925050505050505091929192908035906020019064010000000081111561035857600080fd5b82018360208201111561036a57600080fd5b8035906020019184600183028401116401000000008311171561038c57600080fd5b91908080601f016020809104026020016040519081016040528093929190818152602001838380828437600081840152601f19601f820116905080830192505050505050509192919290803590602001906401000000008111156103ef57600080fd5b82018360208201111561040157600080fd5b8035906020019184600183028401116401000000008311171561042357600080fd5b91908080601f016020809104026020016040519081016040528093929190818152602001838380828437600081840152601f19601f8201169050808301925050505050505091929192908035906020019064010000000081111561048657600080fd5b82018360208201111561049857600080fd5b803590602001918460018302840111640100000000831117156104ba57600080fd5b91908080601f016020809104026020016040519081016040528093929190818152602001838380828437600081840152601f19601f820116905080830192505050505050509192919290505050610efc565b005b34801561051a57600080fd5b50610523611373565b6040518082815260200191505060405180910390f35b34801561054557600080fd5b506105726004803603602081101561055c57600080fd5b8101908080359060200190929190505050611379565b60405180868152602001806020018581526020018473ffffffffffffffffffffffffffffffffffffffff1673ffffffffffffffffffffffffffffffffffffffff16815260200183151515158152602001828103825286818151815260200191508051906020019080838360005b838110156105fa5780820151818401526020810190506105df565b50505050905090810190601f1680156106275780820380516001836020036101000a031916815260200191505b50965050505050505060405180910390f35b34801561064557600080fd5b5061064e611474565b6040518082815260200191505060405180910390f35b34801561067057600080fd5b506107346004803603604081101561068757600080fd5b81019080803590602001906401000000008111156106a457600080fd5b8201836020820111156106b657600080fd5b803590602001918460018302840111640100000000831117156106d857600080fd5b91908080601f016020809104026020016040519081016040528093929190818152602001838380828437600081840152601f19601f8201169050808301925050505050505091929192908035906020019092919050505061147a565b005b34801561074257600080fd5b5061076f6004803603602081101561075957600080fd5b810190808035906020019092919050505061168c565b005b34801561077d57600080fd5b506107aa6004803603602081101561079457600080fd5b8101908080359060200190929190505050611e5d565b6040518089815260200180602001806020018881526020018060200180602001806020018060200187810387528e818151815260200191508051906020019080838360005b8381101561080a5780820151818401526020810190506107ef565b50505050905090810190601f1680156108375780820380516001836020036101000a031916815260200191505b5087810386528d818151815260200191508051906020019080838360005b83811015610870578082015181840152602081019050610855565b50505050905090810190601f16801561089d5780820380516001836020036101000a031916815260200191505b5087810385528b818151815260200191508051906020019080838360005b838110156108d65780820151818401526020810190506108bb565b50505050905090810190601f1680156109035780820380516001836020036101000a031916815260200191505b5087810384528a818151815260200191508051906020019080838360005b8381101561093c578082015181840152602081019050610921565b50505050905090810190601f1680156109695780820380516001836020036101000a031916815260200191505b50878103835289818151815260200191508051906020019080838360005b838110156109a2578082015181840152602081019050610987565b50505050905090810190601f1680156109cf5780820380516001836020036101000a031916815260200191505b50878103825288818151815260200191508051906020019080838360005b83811015610a085780820151818401526020810190506109ed565b50505050905090810190601f168015610a355780820380516001836020036101000a031916815260200191505b509e50505050505050505050505050505060405180910390f35b60008054600181600116156101000203166002900480601f016020809104026020016040519081016040528092919081815260200182805460018160011615610100020316600290048015610ae55780601f10610aba57610100808354040283529160200191610ae5565b820191906000526020600020905b815481529060010190602001808311610ac857829003601f168201915b505050505081565b610af5612235565b600360008381526020019081526020016000206040518060a001604052908160008201548152602001600182018054600181600116156101000203166002900480601f016020809104026020016040519081016040528092919081815260200182805460018160011615610100020316600290048015610bb65780601f10610b8b57610100808354040283529160200191610bb6565b820191906000526020600020905b815481529060010190602001808311610b9957829003601f168201915b50505050508152602001600282015481526020016003820160009054906101000a900473ffffffffffffffffffffffffffffffffffffffff1673ffffffffffffffffffffffffffffffffffffffff1673ffffffffffffffffffffffffffffffffffffffff1681526020016003820160149054906101000a900460ff161515151581525050905060008160600151905060008260000151118015610c5f5750600154826000015111155b610c6857600080fd5b8160400151341015610c7957600080fd5b816080015115610c8857600080fd5b3373ffffffffffffffffffffffffffffffffffffffff168173ffffffffffffffffffffffffffffffffffffffff161415610cc157600080fd5b33826060019073ffffffffffffffffffffffffffffffffffffffff16908173ffffffffffffffffffffffffffffffffffffffff168152505060018260800190151590811515815250508160036000858152602001908152602001600020600082015181600001556020820151816001019080519060200190610d4492919061227c565b506040820151816002015560608201518160030160006101000a81548173ffffffffffffffffffffffffffffffffffffffff021916908373ffffffffffffffffffffffffffffffffffffffff16021790555060808201518160030160146101000a81548160ff0219169083151502179055509050508073ffffffffffffffffffffffffffffffffffffffff166108fc349081150290604051600060405180830381858888f19350505050158015610dff573d6000803e3d6000fd5b507f79558d0d7d4d900e2f15c4cc0a665f1acdbe415e44de900ecdd1e5bf12b56f4e6001548360200151846040015133600160405180868152602001806020018581526020018473ffffffffffffffffffffffffffffffffffffffff1673ffffffffffffffffffffffffffffffffffffffff16815260200183151515158152602001828103825286818151815260200191508051906020019080838360005b83811015610eb9578082015181840152602081019050610e9e565b50505050905090810190601f168015610ee65780820380516001836020036101000a031916815260200191505b50965050505050505060405180910390a1505050565b6000865111610f73576040517f08c379a00000000000000000000000000000000000000000000000000000000081526004018080602001828103825260158152602001807f44727567206d757374206861732061206e616d652e000000000000000000000081525060200191505060405180910390fd5b600260008154809291906001019190505550604051806101000160405280600254815260200188815260200187815260200186815260200185815260200184815260200183815260200182815250600460006002548152602001908152602001600020600082015181600001556020820151816001019080519060200190610ffc92919061227c565b50604082015181600201908051906020019061101992919061227c565b5060608201518160030155608082015181600401908051906020019061104092919061227c565b5060a082015181600501908051906020019061105d92919061227c565b5060c082015181600601908051906020019061107a92919061227c565b5060e082015181600701908051906020019061109792919061227c565b509050507f8d747ad164521ba2af8bc813d6f227768a772610171f3acac428fcd015f70a8e600254888888888888886040518089815260200180602001806020018881526020018060200180602001806020018060200187810387528e818151815260200191508051906020019080838360005b8381101561112657808201518184015260208101905061110b565b50505050905090810190601f1680156111535780820380516001836020036101000a031916815260200191505b5087810386528d818151815260200191508051906020019080838360005b8381101561118c578082015181840152602081019050611171565b50505050905090810190601f1680156111b95780820380516001836020036101000a031916815260200191505b5087810385528b818151815260200191508051906020019080838360005b838110156111f25780820151818401526020810190506111d7565b50505050905090810190601f16801561121f5780820380516001836020036101000a031916815260200191505b5087810384528a818151815260200191508051906020019080838360005b8381101561125857808201518184015260208101905061123d565b50505050905090810190601f1680156112855780820380516001836020036101000a031916815260200191505b50878103835289818151815260200191508051906020019080838360005b838110156112be5780820151818401526020810190506112a3565b50505050905090810190601f1680156112eb5780820380516001836020036101000a031916815260200191505b50878103825288818151815260200191508051906020019080838360005b83811015611324578082015181840152602081019050611309565b50505050905090810190601f1680156113515780820380516001836020036101000a031916815260200191505b509e50505050505050505050505050505060405180910390a150505050505050565b60025481565b6003602052806000526040600020600091509050806000015490806001018054600181600116156101000203166002900480601f01602080910402602001604051908101604052809291908181526020018280546001816001161561010002031660029004801561142b5780601f106114005761010080835404028352916020019161142b565b820191906000526020600020905b81548152906001019060200180831161140e57829003601f168201915b5050505050908060020154908060030160009054906101000a900473ffffffffffffffffffffffffffffffffffffffff16908060030160149054906101000a900460ff16905085565b60015481565b600082511161148857600080fd5b6000811161149557600080fd5b6001600081548092919060010191905055506040518060a0016040528060015481526020018381526020018281526020013373ffffffffffffffffffffffffffffffffffffffff1681526020016000151581525060036000600154815260200190815260200160002060008201518160000155602082015181600101908051906020019061152492919061227c565b506040820151816002015560608201518160030160006101000a81548173ffffffffffffffffffffffffffffffffffffffff021916908373ffffffffffffffffffffffffffffffffffffffff16021790555060808201518160030160146101000a81548160ff0219169083151502179055509050507fbc59c0c8165864dcceb377dd07d8f431d4303f8e501cb0a0374a10cc68d71836600154838333600060405180868152602001806020018581526020018473ffffffffffffffffffffffffffffffffffffffff1673ffffffffffffffffffffffffffffffffffffffff16815260200183151515158152602001828103825286818151815260200191508051906020019080838360005b8381101561164a57808201518184015260208101905061162f565b50505050905090810190601f1680156116775780820380516001836020036101000a031916815260200191505b50965050505050505060405180910390a15050565b6116946122fc565b600460008381526020019081526020016000206040518061010001604052908160008201548152602001600182018054600181600116156101000203166002900480601f0160208091040260200160405190810160405280929190818152602001828054600181600116156101000203166002900480156117565780601f1061172b57610100808354040283529160200191611756565b820191906000526020600020905b81548152906001019060200180831161173957829003601f168201915b50505050508152602001600282018054600181600116156101000203166002900480601f0160208091040260200160405190810160405280929190818152602001828054600181600116156101000203166002900480156117f85780601f106117cd576101008083540402835291602001916117f8565b820191906000526020600020905b8154815290600101906020018083116117db57829003601f168201915b5050505050815260200160038201548152602001600482018054600181600116156101000203166002900480601f0160208091040260200160405190810160405280929190818152602001828054600181600116156101000203166002900480156118a45780601f10611879576101008083540402835291602001916118a4565b820191906000526020600020905b81548152906001019060200180831161188757829003601f168201915b50505050508152602001600582018054600181600116156101000203166002900480601f0160208091040260200160405190810160405280929190818152602001828054600181600116156101000203166002900480156119465780601f1061191b57610100808354040283529160200191611946565b820191906000526020600020905b81548152906001019060200180831161192957829003601f168201915b50505050508152602001600682018054600181600116156101000203166002900480601f0160208091040260200160405190810160405280929190818152602001828054600181600116156101000203166002900480156119e85780601f106119bd576101008083540402835291602001916119e8565b820191906000526020600020905b8154815290600101906020018083116119cb57829003601f168201915b50505050508152602001600782018054600181600116156101000203166002900480601f016020809104026020016040519081016040528092919081815260200182805460018160011615610100020316600290048015611a8a5780601f10611a5f57610100808354040283529160200191611a8a565b820191906000526020600020905b815481529060010190602001808311611a6d57829003601f168201915b50505050508152505090508060046000848152602001908152602001600020600082015181600001556020820151816001019080519060200190611acf92919061227c565b506040820151816002019080519060200190611aec92919061227c565b50606082015181600301556080820151816004019080519060200190611b1392919061227c565b5060a0820151816005019080519060200190611b3092919061227c565b5060c0820151816006019080519060200190611b4d92919061227c565b5060e0820151816007019080519060200190611b6a92919061227c565b509050507fc54a8e02bcd3b5fe982da57a720474a43fcf1cb1f78dfa7d3ae871ee0a03efab60025482602001518360400151846060015185608001518660a001518760c001518860e001516040518089815260200180602001806020018881526020018060200180602001806020018060200187810387528e818151815260200191508051906020019080838360005b83811015611c15578082015181840152602081019050611bfa565b50505050905090810190601f168015611c425780820380516001836020036101000a031916815260200191505b5087810386528d818151815260200191508051906020019080838360005b83811015611c7b578082015181840152602081019050611c60565b50505050905090810190601f168015611ca85780820380516001836020036101000a031916815260200191505b5087810385528b818151815260200191508051906020019080838360005b83811015611ce1578082015181840152602081019050611cc6565b50505050905090810190601f168015611d0e5780820380516001836020036101000a031916815260200191505b5087810384528a818151815260200191508051906020019080838360005b83811015611d47578082015181840152602081019050611d2c565b50505050905090810190601f168015611d745780820380516001836020036101000a031916815260200191505b50878103835289818151815260200191508051906020019080838360005b83811015611dad578082015181840152602081019050611d92565b50505050905090810190601f168015611dda5780820380516001836020036101000a031916815260200191505b50878103825288818151815260200191508051906020019080838360005b83811015611e13578082015181840152602081019050611df8565b50505050905090810190601f168015611e405780820380516001836020036101000a031916815260200191505b509e50505050505050505050505050505060405180910390a15050565b6004602052806000526040600020600091509050806000015490806001018054600181600116156101000203166002900480601f016020809104026020016040519081016040528092919081815260200182805460018160011615610100020316600290048015611f0f5780601f10611ee457610100808354040283529160200191611f0f565b820191906000526020600020905b815481529060010190602001808311611ef257829003601f168201915b505050505090806002018054600181600116156101000203166002900480601f016020809104026020016040519081016040528092919081815260200182805460018160011615610100020316600290048015611fad5780601f10611f8257610100808354040283529160200191611fad565b820191906000526020600020905b815481529060010190602001808311611f9057829003601f168201915b505050505090806003015490806004018054600181600116156101000203166002900480601f0160208091040260200160405190810160405280929190818152602001828054600181600116156101000203166002900480156120515780601f1061202657610100808354040283529160200191612051565b820191906000526020600020905b81548152906001019060200180831161203457829003601f168201915b505050505090806005018054600181600116156101000203166002900480601f0160208091040260200160405190810160405280929190818152602001828054600181600116156101000203166002900480156120ef5780601f106120c4576101008083540402835291602001916120ef565b820191906000526020600020905b8154815290600101906020018083116120d257829003601f168201915b505050505090806006018054600181600116156101000203166002900480601f01602080910402602001604051908101604052809291908181526020018280546001816001161561010002031660029004801561218d5780601f106121625761010080835404028352916020019161218d565b820191906000526020600020905b81548152906001019060200180831161217057829003601f168201915b505050505090806007018054600181600116156101000203166002900480601f01602080910402602001604051908101604052809291908181526020018280546001816001161561010002031660029004801561222b5780601f106122005761010080835404028352916020019161222b565b820191906000526020600020905b81548152906001019060200180831161220e57829003601f168201915b5050505050905088565b6040518060a00160405280600081526020016060815260200160008152602001600073ffffffffffffffffffffffffffffffffffffffff1681526020016000151581525090565b828054600181600116156101000203166002900490600052602060002090601f016020900481019282601f106122bd57805160ff19168380011785556122eb565b828001600101855582156122eb579182015b828111156122ea5782518255916020019190600101906122cf565b5b5090506122f89190612341565b5090565b60405180610100016040528060008152602001606081526020016060815260200160008152602001606081526020016060815260200160608152602001606081525090565b61236391905b8082111561235f576000816000905550600101612347565b5090565b9056fea165627a7a72305820f9dd82c9d1828b2648fa0ee962b334a9aaa6f4100a3273f24fa736a4d31375720029",
  "source": "pragma solidity >=0.4.21 <0.6.0;\n\ncontract Marketplace{\n\n    string public name;\n    uint public productCount = 0;\n    uint public drugCount = 0;\n    mapping(uint => Product) public products;\n    mapping(uint => Drug) public drugs;\n\n    struct Product{\n\n        uint id;\n        string name;\n        uint price;\n        address payable owner;\n        bool purchased;\n    }\n\n    struct Drug{\n\n        uint id;\n        string role;\n        string drugName;\n        uint price;\n        string remark;\n        // address payable owner;\n        string content;\n        string mnfDate;\n        string expDate;\n\n    }\n\n    event DrugCreated(\n\n        uint id,\n        string role,\n        string drugName,\n        uint price,\n        string remark,\n        // address payable owner,\n        string content,\n        string mnfDate,\n        string expDate\n    );\n\n     event DrugDataPosted(\n\n        uint id,\n        string role,\n        string drugName,\n        uint price,\n        string remark,\n        // address payable owner,\n        string content,\n        string mnfDate,\n        string expDate\n    );\n\n        \n    event ProductCreated(\n        uint id,\n        string name,\n        uint price,\n        address payable owner,\n        bool purchased\n    );\n\n    event ProductPurchased(\n        uint id,\n        string name,\n        uint price,\n        address payable owner,\n        bool purchased\n\n    );\n\n    constructor() public{\n\n        name = \"kanad\";\n    }\n\n    function createDrug(string memory _role, string memory _name, uint _price, string memory _remark, string memory _content, string memory _mnfDate, string memory _expDate) public{\n\n        //name validation\n        require(bytes(_name).length > 0, \"Drug must has a name.\");\n\n        drugCount++;\n\n         //create the product\n         drugs[drugCount] = Drug(drugCount, _role, _name, _price, _remark, _content, _mnfDate, _expDate);\n\n         //trigger an event to notify the product is created\n         emit DrugCreated(drugCount, _role, _name, _price, _remark, _content, _mnfDate, _expDate);\n\n\n    }\n\n    function postDrugData(uint _id) public {\n\n        Drug memory _drug = drugs[_id];\n        \n        drugs[_id] = _drug;\n\n        emit DrugDataPosted(drugCount, _drug.role, _drug.drugName, _drug.price, _drug.remark, _drug.content, _drug.mnfDate, _drug.expDate);\n\n\n    }\n\n\n\n    function createProduct(string memory _name, uint _price) public{\n        \n        //name validation\n        require(bytes(_name).length > 0);\n\n        //price validation\n        require(_price > 0);\n        //increament the product count\n        productCount++;\n\n        //create the product\n         products[productCount] = Product(productCount, _name,  _price, msg.sender, false);\n\n         //trigger an event to notify the product is created\n         emit ProductCreated(productCount, _name,  _price, msg.sender, false);\n\n    }\n\n    function purchaseProduct(uint _id) public payable{\n\n        Product memory _product = products[_id];\n\n        address payable _seller = _product.owner;\n\n        //make shure that valid product id\n        require(_product.id >0 && _product.id<=productCount);\n\n        //make that anount is enough to purchase prduct\n        require(msg.value>= _product.price);\n\n        //make shure thaat product has not been purchased already\n        require(!_product.purchased);\n\n        //make sure seller is not buyer\n        require(_seller != msg.sender); \n\n        _product.owner = msg.sender; //now the owner will be buyer who will call this fun. so msg.sender\n\n        _product.purchased = true;\n\n        //put back updated produt in mapping\n        products[_id] = _product;\n\n        //we need to pay paise or money to owner after purchasing\n        address(_seller).transfer(msg.value);\n\n        //trigger an event to notify the product is purchased\n        emit ProductPurchased(productCount, _product.name, _product.price, msg.sender, true);\n\n    }\n\n    \n    \n}",
  "sourcePath": "/home/rahul/Desktop/pharm/src/contracts/Marketplace.sol",
  "compiler": {
    "name": "solc",
    "version": "0.5.8+commit.23d335f2.Emscripten.clang"
  },
  "schemaVersion": "3.0.16",
  "updatedAt": "2020-04-25T16:39:19.422Z",
  "devdoc": {
    "methods": {}
  },
  "userdoc": {
    "methods": {}
  }
}